{
  "contractName": "BidKaroNa",
  "abi": [
    {
      "inputs": [],
      "payable": false,
      "stateMutability": "nonpayable",
      "type": "constructor"
    },
    {
      "anonymous": false,
      "inputs": [
        {
          "indexed": false,
          "internalType": "string",
          "name": "log",
          "type": "string"
        }
      ],
      "name": "LogFailure",
      "type": "event"
    },
    {
      "anonymous": false,
      "inputs": [
        {
          "indexed": false,
          "internalType": "uint256",
          "name": "auctionId",
          "type": "uint256"
        }
      ],
      "name": "auctionActivated",
      "type": "event"
    },
    {
      "anonymous": false,
      "inputs": [
        {
          "indexed": false,
          "internalType": "uint256",
          "name": "auctionId",
          "type": "uint256"
        }
      ],
      "name": "auctionCancelled",
      "type": "event"
    },
    {
      "anonymous": false,
      "inputs": [
        {
          "indexed": false,
          "internalType": "uint256",
          "name": "auctionId",
          "type": "uint256"
        },
        {
          "indexed": false,
          "internalType": "string",
          "name": "title",
          "type": "string"
        },
        {
          "indexed": false,
          "internalType": "address",
          "name": "assetAddress",
          "type": "address"
        },
        {
          "indexed": false,
          "internalType": "uint256",
          "name": "reservePrice",
          "type": "uint256"
        },
        {
          "indexed": false,
          "internalType": "uint256",
          "name": "deadline",
          "type": "uint256"
        }
      ],
      "name": "auctionCreated",
      "type": "event"
    },
    {
      "anonymous": false,
      "inputs": [
        {
          "indexed": false,
          "internalType": "uint256",
          "name": "actionId",
          "type": "uint256"
        },
        {
          "indexed": false,
          "internalType": "string",
          "name": "newOwner",
          "type": "string"
        },
        {
          "indexed": false,
          "internalType": "address",
          "name": "newOwnerAddress",
          "type": "address"
        }
      ],
      "name": "auctionEnded",
      "type": "event"
    },
    {
      "anonymous": false,
      "inputs": [
        {
          "indexed": false,
          "internalType": "uint256",
          "name": "auctionId",
          "type": "uint256"
        },
        {
          "indexed": false,
          "internalType": "address",
          "name": "bidder",
          "type": "address"
        },
        {
          "indexed": false,
          "internalType": "uint256",
          "name": "bidAmount",
          "type": "uint256"
        }
      ],
      "name": "bidPlaced",
      "type": "event"
    },
    {
      "anonymous": false,
      "inputs": [
        {
          "indexed": false,
          "internalType": "address",
          "name": "bidder",
          "type": "address"
        },
        {
          "indexed": false,
          "internalType": "uint256",
          "name": "auctionId",
          "type": "uint256"
        },
        {
          "indexed": false,
          "internalType": "uint256",
          "name": "refundAmout",
          "type": "uint256"
        }
      ],
      "name": "withdrewRefund",
      "type": "event"
    },
    {
      "constant": true,
      "inputs": [],
      "name": "owner",
      "outputs": [
        {
          "internalType": "address",
          "name": "",
          "type": "address"
        }
      ],
      "payable": false,
      "stateMutability": "view",
      "type": "function"
    },
    {
      "constant": true,
      "inputs": [
        {
          "internalType": "address",
          "name": "_party",
          "type": "address"
        },
        {
          "internalType": "address",
          "name": "_assetAddress",
          "type": "address"
        }
      ],
      "name": "partyOwnsAsset",
      "outputs": [
        {
          "internalType": "bool",
          "name": "",
          "type": "bool"
        }
      ],
      "payable": false,
      "stateMutability": "view",
      "type": "function"
    },
    {
      "constant": false,
      "inputs": [
        {
          "internalType": "address",
          "name": "_assetAddress",
          "type": "address"
        },
        {
          "internalType": "uint256",
          "name": "_reservePrice",
          "type": "uint256"
        },
        {
          "internalType": "uint256",
          "name": "_deadline",
          "type": "uint256"
        },
        {
          "internalType": "string",
          "name": "_title",
          "type": "string"
        }
      ],
      "name": "createAuction",
      "outputs": [
        {
          "internalType": "int256",
          "name": "",
          "type": "int256"
        }
      ],
      "payable": false,
      "stateMutability": "nonpayable",
      "type": "function"
    },
    {
      "constant": false,
      "inputs": [
        {
          "internalType": "uint256",
          "name": "auctionId",
          "type": "uint256"
        }
      ],
      "name": "activateAuction",
      "outputs": [
        {
          "internalType": "bool",
          "name": "",
          "type": "bool"
        }
      ],
      "payable": false,
      "stateMutability": "nonpayable",
      "type": "function"
    },
    {
      "constant": false,
      "inputs": [
        {
          "internalType": "uint256",
          "name": "auctionId",
          "type": "uint256"
        }
      ],
      "name": "endAuction",
      "outputs": [
        {
          "internalType": "bool",
          "name": "",
          "type": "bool"
        }
      ],
      "payable": false,
      "stateMutability": "nonpayable",
      "type": "function"
    },
    {
      "constant": false,
      "inputs": [
        {
          "internalType": "uint256",
          "name": "auctionId",
          "type": "uint256"
        }
      ],
      "name": "cancelAuction",
      "outputs": [
        {
          "internalType": "bool",
          "name": "",
          "type": "bool"
        }
      ],
      "payable": false,
      "stateMutability": "nonpayable",
      "type": "function"
    },
    {
      "constant": false,
      "inputs": [
        {
          "internalType": "uint256",
          "name": "auctionId",
          "type": "uint256"
        }
      ],
      "name": "withdrawRefund",
      "outputs": [
        {
          "internalType": "bool",
          "name": "",
          "type": "bool"
        }
      ],
      "payable": false,
      "stateMutability": "nonpayable",
      "type": "function"
    },
    {
      "constant": false,
      "inputs": [
        {
          "internalType": "uint256",
          "name": "auctionId",
          "type": "uint256"
        }
      ],
      "name": "placeBid",
      "outputs": [
        {
          "internalType": "bool",
          "name": "",
          "type": "bool"
        }
      ],
      "payable": true,
      "stateMutability": "payable",
      "type": "function"
    },
    {
      "constant": true,
      "inputs": [],
      "name": "getAuctionsLength",
      "outputs": [
        {
          "internalType": "uint256",
          "name": "",
          "type": "uint256"
        }
      ],
      "payable": false,
      "stateMutability": "view",
      "type": "function"
    },
    {
      "constant": true,
      "inputs": [
        {
          "internalType": "uint256",
          "name": "auctionId",
          "type": "uint256"
        }
      ],
      "name": "getAuctionDetails",
      "outputs": [
        {
          "internalType": "address",
          "name": "",
          "type": "address"
        },
        {
          "internalType": "address",
          "name": "",
          "type": "address"
        },
        {
          "internalType": "string",
          "name": "",
          "type": "string"
        },
        {
          "internalType": "uint256",
          "name": "",
          "type": "uint256"
        },
        {
          "internalType": "uint256",
          "name": "",
          "type": "uint256"
        },
        {
          "internalType": "enum BidKaroNa.AuctionStatus",
          "name": "",
          "type": "uint8"
        }
      ],
      "payable": false,
      "stateMutability": "view",
      "type": "function"
    }
  ],
  "bytecode": "0x608060405234801561001057600080fd5b50336000806101000a81548173ffffffffffffffffffffffffffffffffffffffff021916908373ffffffffffffffffffffffffffffffffffffffff1602179055506126cd806100606000396000f3fe6080604052600436106100915760003560e01c80639979ef45116100595780639979ef451461032c5780639d15349514610372578063b9a2de3a146103c5578063dbe3500714610418578063f20e5e351461044357610091565b80633407489b1461009657806353488f0a146101a65780638647c283146101f95780638da5cb5b1461028257806396b5a755146102d9575b600080fd5b3480156100a257600080fd5b50610190600480360360808110156100b957600080fd5b81019080803573ffffffffffffffffffffffffffffffffffffffff16906020019092919080359060200190929190803590602001909291908035906020019064010000000081111561010a57600080fd5b82018360208201111561011c57600080fd5b8035906020019184600183028401116401000000008311171561013e57600080fd5b91908080601f016020809104026020016040519081016040528093929190818152602001838380828437600081840152601f19601f820116905080830192505050505050509192919290505050610580565b6040518082815260200191505060405180910390f35b3480156101b257600080fd5b506101df600480360360208110156101c957600080fd5b8101908080359060200190929190505050610ace565b604051808215151515815260200191505060405180910390f35b34801561020557600080fd5b506102686004803603604081101561021c57600080fd5b81019080803573ffffffffffffffffffffffffffffffffffffffff169060200190929190803573ffffffffffffffffffffffffffffffffffffffff169060200190929190505050610d80565b604051808215151515815260200191505060405180910390f35b34801561028e57600080fd5b50610297610e3e565b604051808273ffffffffffffffffffffffffffffffffffffffff1673ffffffffffffffffffffffffffffffffffffffff16815260200191505060405180910390f35b3480156102e557600080fd5b50610312600480360360208110156102fc57600080fd5b8101908080359060200190929190505050610e63565b604051808215151515815260200191505060405180910390f35b6103586004803603602081101561034257600080fd5b81019080803590602001909291905050506110f1565b604051808215151515815260200191505060405180910390f35b34801561037e57600080fd5b506103ab6004803603602081101561039557600080fd5b8101908080359060200190929190505050611439565b604051808215151515815260200191505060405180910390f35b3480156103d157600080fd5b506103fe600480360360208110156103e857600080fd5b8101908080359060200190929190505050611722565b604051808215151515815260200191505060405180910390f35b34801561042457600080fd5b5061042d612028565b6040518082815260200191505060405180910390f35b34801561044f57600080fd5b5061047c6004803603602081101561046657600080fd5b8101908080359060200190929190505050612035565b604051808773ffffffffffffffffffffffffffffffffffffffff1673ffffffffffffffffffffffffffffffffffffffff1681526020018673ffffffffffffffffffffffffffffffffffffffff1673ffffffffffffffffffffffffffffffffffffffff1681526020018060200185815260200184815260200183600181111561050057fe5b60ff168152602001828103825286818151815260200191508051906020019080838360005b83811015610540578082015181840152602081019050610525565b50505050905090810190601f16801561056d5780820380516001836020036101000a031916815260200191505b5097505050505050505060405180910390f35b600061058c3386610d80565b610603577fa2db52a45d71264723caeac03c235d51bb30cff5e1ac71c97a5842ec94fbb6af6040518080602001828103825260248152602001806126266024913960400191505060405180910390a17fffffffffffffffffffffffffffffffffffffffffffffffffffffffffffffffff9050610ac6565b82421061069a577fa2db52a45d71264723caeac03c235d51bb30cff5e1ac71c97a5842ec94fbb6af6040518080602001828103825260168152602001807f4c4f473a20496e76616c696420646561646c696e652e0000000000000000000081525060200191505060405180910390a17fffffffffffffffffffffffffffffffffffffffffffffffffffffffffffffffff9050610ac6565b60008411610715577fa2db52a45d71264723caeac03c235d51bb30cff5e1ac71c97a5842ec94fbb6af60405180806020018281038252602581526020018061259a6025913960400191505060405180910390a17fffffffffffffffffffffffffffffffffffffffffffffffffffffffffffffffff9050610ac6565b600260008673ffffffffffffffffffffffffffffffffffffffff1673ffffffffffffffffffffffffffffffffffffffff16815260200190815260200160002060009054906101000a900460ff16156107f7577fa2db52a45d71264723caeac03c235d51bb30cff5e1ac71c97a5842ec94fbb6af6040518080602001828103825260208152602001807f4c4f473a204974656d20697320616c7265616479206f6e2061756374696f6e2e81525060200191505060405180910390a17fffffffffffffffffffffffffffffffffffffffffffffffffffffffffffffffff9050610ac6565b60006001805480919060010161080d91906121f6565b9050846001828154811061081d57fe5b906000526020600020906008020160010181905550336001828154811061084057fe5b906000526020600020906008020160020160006101000a81548173ffffffffffffffffffffffffffffffffffffffff021916908373ffffffffffffffffffffffffffffffffffffffff160217905550856001828154811061089d57fe5b906000526020600020906008020160030160006101000a81548173ffffffffffffffffffffffffffffffffffffffff021916908373ffffffffffffffffffffffffffffffffffffffff16021790555083600182815481106108fa57fe5b906000526020600020906008020160040181905550826001828154811061091d57fe5b90600052602060002090600802016005019080519060200190610941929190612228565b50600180828154811061095057fe5b906000526020600020906008020160070160006101000a81548160ff0219169083600181111561097c57fe5b02179055506001600260008873ffffffffffffffffffffffffffffffffffffffff1673ffffffffffffffffffffffffffffffffffffffff16815260200190815260200160002060006101000a81548160ff0219169083151502179055507f5edaf2fc193dca02c0473446fb8c635a03baa17f00df9289b170151207063d4d818488888860405180868152602001806020018573ffffffffffffffffffffffffffffffffffffffff1673ffffffffffffffffffffffffffffffffffffffff168152602001848152602001838152602001828103825286818151815260200191508051906020019080838360005b83811015610a83578082015181840152602081019050610a68565b50505050905090810190601f168015610ab05780820380516001836020036101000a031916815260200191505b50965050505050505060405180910390a1809150505b949350505050565b6000813373ffffffffffffffffffffffffffffffffffffffff1660018281548110610af557fe5b906000526020600020906008020160020160009054906101000a900473ffffffffffffffffffffffffffffffffffffffff1673ffffffffffffffffffffffffffffffffffffffff1614610b4757600080fd5b60018381548110610b5457fe5b9060005260206000209060080201600401544210610bc0577fa2db52a45d71264723caeac03c235d51bb30cff5e1ac71c97a5842ec94fbb6af6040518080602001828103825260318152602001806125696031913960400191505060405180910390a160009150610d7a565b610c083060018581548110610bd157fe5b906000526020600020906008020160030160009054906101000a900473ffffffffffffffffffffffffffffffffffffffff16610d80565b610c60577fa2db52a45d71264723caeac03c235d51bb30cff5e1ac71c97a5842ec94fbb6af60405180806020018281038252604381526020018061249b6043913960600191505060405180910390a160009150610d7a565b60006001811115610c6d57fe5b60018481548110610c7a57fe5b906000526020600020906008020160070160009054906101000a900460ff166001811115610ca457fe5b1415610cfe577fa2db52a45d71264723caeac03c235d51bb30cff5e1ac71c97a5842ec94fbb6af6040518080602001828103825260238152602001806126766023913960400191505060405180910390a160009150610d7a565b600060018481548110610d0d57fe5b906000526020600020906008020160070160006101000a81548160ff02191690836001811115610d3957fe5b02179055507f1c8a288bf7ec5f32172587ffdda82787ddb9e9af596ed59430eac94ad8769eec836040518082815260200191505060405180910390a1600191505b50919050565b6000808290508373ffffffffffffffffffffffffffffffffffffffff168173ffffffffffffffffffffffffffffffffffffffff1663893d20e86040518163ffffffff1660e01b815260040160206040518083038186803b158015610de357600080fd5b505afa158015610df7573d6000803e3d6000fd5b505050506040513d6020811015610e0d57600080fd5b810190808051906020019092919050505073ffffffffffffffffffffffffffffffffffffffff161491505092915050565b6000809054906101000a900473ffffffffffffffffffffffffffffffffffffffff1681565b6000813373ffffffffffffffffffffffffffffffffffffffff1660018281548110610e8a57fe5b906000526020600020906008020160020160009054906101000a900473ffffffffffffffffffffffffffffffffffffffff1673ffffffffffffffffffffffffffffffffffffffff1614610edc57600080fd5b600180811115610ee857fe5b60018481548110610ef557fe5b906000526020600020906008020160070160009054906101000a900460ff166001811115610f1f57fe5b1415610f79577fa2db52a45d71264723caeac03c235d51bb30cff5e1ac71c97a5842ec94fbb6af6040518080602001828103825260278152602001806125426027913960400191505060405180910390a1600091506110eb565b60018381548110610f8657fe5b9060005260206000209060080201600401544210610ff2577fa2db52a45d71264723caeac03c235d51bb30cff5e1ac71c97a5842ec94fbb6af6040518080602001828103825260318152602001806125116031913960400191505060405180910390a1600091506110eb565b60006001848154811061100157fe5b9060005260206000209060080201600001805490501115611070577fa2db52a45d71264723caeac03c235d51bb30cff5e1ac71c97a5842ec94fbb6af60405180806020018281038252603b8152602001806125bf603b913960400191505060405180910390a1600091506110eb565b600180848154811061107e57fe5b906000526020600020906008020160070160006101000a81548160ff021916908360018111156110aa57fe5b02179055507fb866bb4b98ba3ad2786d5bd9dcd02c04a144c9c26865420cac31d6550061ef42836040518082815260200191505060405180910390a1600191505b50919050565b60006001808111156110ff57fe5b6001838154811061110c57fe5b906000526020600020906008020160070160009054906101000a900460ff16600181111561113657fe5b14156111ad577fa2db52a45d71264723caeac03c235d51bb30cff5e1ac71c97a5842ec94fbb6af6040518080602001828103825260188152602001807f4c4f473a2041756374696f6e206e6f74206163746976652e000000000000000081525060200191505060405180910390a160009050611434565b600182815481106111ba57fe5b906000526020600020906008020160010154341015611227577fa2db52a45d71264723caeac03c235d51bb30cff5e1ac71c97a5842ec94fbb6af6040518080602001828103825260288152602001806124736028913960400191505060405180910390a160009050611434565b60006001838154811061123657fe5b9060005260206000209060080201600001805480919060010161125991906122a8565b9050336001848154811061126957fe5b9060005260206000209060080201600001828154811061128557fe5b906000526020600020906003020160000160006101000a81548173ffffffffffffffffffffffffffffffffffffffff021916908373ffffffffffffffffffffffffffffffffffffffff16021790555034600184815481106112e257fe5b906000526020600020906008020160000182815481106112fe57fe5b906000526020600020906003020160010181905550426001848154811061132157fe5b9060005260206000209060080201600001828154811061133d57fe5b906000526020600020906003020160020181905550346001848154811061136057fe5b906000526020600020906008020160060160003373ffffffffffffffffffffffffffffffffffffffff1673ffffffffffffffffffffffffffffffffffffffff168152602001908152602001600020600082825401925050819055507fb709f01451ed0783e7600e0c31d1df63da03b66b3caf7cddde880f0774332ba6833334604051808481526020018373ffffffffffffffffffffffffffffffffffffffff1673ffffffffffffffffffffffffffffffffffffffff168152602001828152602001935050505060405180910390a160019150505b919050565b600080600181111561144757fe5b6001838154811061145457fe5b906000526020600020906008020160070160009054906101000a900460ff16600181111561147e57fe5b14156114d8577fa2db52a45d71264723caeac03c235d51bb30cff5e1ac71c97a5842ec94fbb6af60405180806020018281038252602c8152602001806125fa602c913960400191505060405180910390a16000905061171d565b6000600183815481106114e757fe5b906000526020600020906008020160060160003373ffffffffffffffffffffffffffffffffffffffff1673ffffffffffffffffffffffffffffffffffffffff16815260200190815260200160002054905060006001848154811061154757fe5b906000526020600020906008020160060160003373ffffffffffffffffffffffffffffffffffffffff1673ffffffffffffffffffffffffffffffffffffffff168152602001908152602001600020819055503373ffffffffffffffffffffffffffffffffffffffff166108fc829081150290604051600060405180830381858888f193505050506116a4577fa2db52a45d71264723caeac03c235d51bb30cff5e1ac71c97a5842ec94fbb6af60405180806020018281038252601f8152602001807f4c4f473a20556e61626c6520746f207472616e73666572206574686572732e0081525060200191505060405180910390a1806001848154811061164857fe5b906000526020600020906008020160060160003373ffffffffffffffffffffffffffffffffffffffff1673ffffffffffffffffffffffffffffffffffffffff16815260200190815260200160002081905550600091505061171d565b7f6dd3cbb553d1e94c30e31a098224d12f9ec17c2851199e90d844e96007640f76338483604051808473ffffffffffffffffffffffffffffffffffffffff1673ffffffffffffffffffffffffffffffffffffffff168152602001838152602001828152602001935050505060405180910390a160019150505b919050565b60006001828154811061173157fe5b90600052602060002090600802016004015442101561179e577fa2db52a45d71264723caeac03c235d51bb30cff5e1ac71c97a5842ec94fbb6af60405180806020018281038252602c81526020018061264a602c913960400191505060405180910390a160009050612023565b6001808111156117aa57fe5b600183815481106117b757fe5b906000526020600020906008020160070160009054906101000a900460ff1660018111156117e157fe5b141561183b577fa2db52a45d71264723caeac03c235d51bb30cff5e1ac71c97a5842ec94fbb6af6040518080602001828103825260338152602001806124de6033913960400191505060405180910390a160009050612023565b600180838154811061184957fe5b906000526020600020906008020160070160006101000a81548160ff0219169083600181111561187557fe5b021790555060006001838154811061188957fe5b906000526020600020906008020160030160009054906101000a900473ffffffffffffffffffffffffffffffffffffffff1690506060600080600186815481106118cf57fe5b9060005260206000209060080201600001805490501415611a61578273ffffffffffffffffffffffffffffffffffffffff166313af40356001878154811061191357fe5b906000526020600020906008020160020160009054906101000a900473ffffffffffffffffffffffffffffffffffffffff166040518263ffffffff1660e01b8152600401808273ffffffffffffffffffffffffffffffffffffffff1673ffffffffffffffffffffffffffffffffffffffff168152602001915050602060405180830381600087803b1580156119a757600080fd5b505af11580156119bb573d6000803e3d6000fd5b505050506040513d60208110156119d157600080fd5b8101908080519060200190929190505050506040518060400160405280600681526020017f73656c6c65720000000000000000000000000000000000000000000000000000815250915060018581548110611a2857fe5b906000526020600020906008020160020160009054906101000a900473ffffffffffffffffffffffffffffffffffffffff169050611f44565b60008090506000600190505b60018781548110611a7a57fe5b906000526020600020906008020160000180549050811015611b235760018781548110611aa357fe5b90600052602060002090600802016000018281548110611abf57fe5b90600052602060002090600302016001015460018881548110611ade57fe5b90600052602060002090600802016000018281548110611afa57fe5b9060005260206000209060030201600101541115611b16578091505b8080600101915050611a6d565b5060006002600060018981548110611b3757fe5b906000526020600020906008020160030160009054906101000a900473ffffffffffffffffffffffffffffffffffffffff1673ffffffffffffffffffffffffffffffffffffffff1673ffffffffffffffffffffffffffffffffffffffff16815260200190815260200160002060006101000a81548160ff0219169083151502179055508373ffffffffffffffffffffffffffffffffffffffff166313af403560018881548110611be357fe5b90600052602060002090600802016000018381548110611bff57fe5b906000526020600020906003020160000160009054906101000a900473ffffffffffffffffffffffffffffffffffffffff166040518263ffffffff1660e01b8152600401808273ffffffffffffffffffffffffffffffffffffffff1673ffffffffffffffffffffffffffffffffffffffff168152602001915050602060405180830381600087803b158015611c9357600080fd5b505af1158015611ca7573d6000803e3d6000fd5b505050506040513d6020811015611cbd57600080fd5b81019080805190602001909291905050505060018681548110611cdc57fe5b90600052602060002090600802016000018181548110611cf857fe5b90600052602060002090600302016001015460018781548110611d1757fe5b9060005260206000209060080201600601600060018981548110611d3757fe5b90600052602060002090600802016000018481548110611d5357fe5b906000526020600020906003020160000160009054906101000a900473ffffffffffffffffffffffffffffffffffffffff1673ffffffffffffffffffffffffffffffffffffffff1673ffffffffffffffffffffffffffffffffffffffff1681526020019081526020016000206000828254039250508190555060018681548110611dd957fe5b90600052602060002090600802016000018181548110611df557fe5b90600052602060002090600302016001015460018781548110611e1457fe5b9060005260206000209060080201600601600060018981548110611e3457fe5b906000526020600020906008020160020160009054906101000a900473ffffffffffffffffffffffffffffffffffffffff1673ffffffffffffffffffffffffffffffffffffffff1673ffffffffffffffffffffffffffffffffffffffff168152602001908152602001600020600082825401925050819055506040518060400160405280600681526020017f6269646465720000000000000000000000000000000000000000000000000000815250925060018681548110611ef257fe5b90600052602060002090600802016000018181548110611f0e57fe5b906000526020600020906003020160000160009054906101000a900473ffffffffffffffffffffffffffffffffffffffff169150505b7e4f13d1ff23af5f7b0b0fc3d6dfb6c2a65f05a49ffc9b2f9ac89d04ca60d8d585838360405180848152602001806020018373ffffffffffffffffffffffffffffffffffffffff1673ffffffffffffffffffffffffffffffffffffffff168152602001828103825284818151815260200191508051906020019080838360005b83811015611fdf578082015181840152602081019050611fc4565b50505050905090810190601f16801561200c5780820380516001836020036101000a031916815260200191505b5094505050505060405180910390a1600193505050505b919050565b6000600180549050905090565b600080606060008060006001878154811061204c57fe5b906000526020600020906008020160020160009054906101000a900473ffffffffffffffffffffffffffffffffffffffff166001888154811061208b57fe5b906000526020600020906008020160030160009054906101000a900473ffffffffffffffffffffffffffffffffffffffff16600189815481106120ca57fe5b906000526020600020906008020160050160018a815481106120e857fe5b90600052602060002090600802016004015460018b8154811061210757fe5b90600052602060002090600802016001015460018c8154811061212657fe5b906000526020600020906008020160070160009054906101000a900460ff16838054600181600116156101000203166002900480601f0160208091040260200160405190810160405280929190818152602001828054600181600116156101000203166002900480156121da5780601f106121af576101008083540402835291602001916121da565b820191906000526020600020905b8154815290600101906020018083116121bd57829003601f168201915b5050505050935095509550955095509550955091939550919395565b8154818355818111156122235760080281600802836000526020600020918201910161222291906122da565b5b505050565b828054600181600116156101000203166002900490600052602060002090601f016020900481019282601f1061226957805160ff1916838001178555612297565b82800160010185558215612297579182015b8281111561229657825182559160200191906001019061227b565b5b5090506122a4919061238b565b5090565b8154818355818111156122d5576003028160030283600052602060002091820191016122d491906123b0565b5b505050565b61238891905b8082111561238457600080820160006122f99190612406565b60018201600090556002820160006101000a81549073ffffffffffffffffffffffffffffffffffffffff02191690556003820160006101000a81549073ffffffffffffffffffffffffffffffffffffffff02191690556004820160009055600582016000612367919061242a565b6007820160006101000a81549060ff0219169055506008016122e0565b5090565b90565b6123ad91905b808211156123a9576000816000905550600101612391565b5090565b90565b61240391905b808211156123ff57600080820160006101000a81549073ffffffffffffffffffffffffffffffffffffffff021916905560018201600090556002820160009055506003016123b6565b5090565b90565b508054600082556003029060005260206000209081019061242791906123b0565b50565b50805460018160011615610100020316600290046000825580601f10612450575061246f565b601f01602090049060005260206000209081019061246e919061238b565b5b5056fe4c4f473a20416d6f756e74206c657373207468616e2074686520726573657276652070726963652e4c4f473a205472616e73666572206f776e65727368697020746f204269644b61726f4e61206265666f72652061637469766174696e67207468652061756374696f6e2e4c4f473a2043616e6e6f7420656e6420616e20616c726561647920656e6465642f63616e63656c6c65642061756374696f6e2e4c4f473a2043616e6e6f742063616e63656c20616e2061756374696f6e2061667465722074686520646561646c696e652e4c4f473a2043616e6e6f742063616e63656c20616e20696e6163746976652061756374696f6e2e4c4f473a2054686520646561646c696e6520666f722061756374696f6e2068617320616c7265616479207061737365642e4c4f473a20526573657276652070726963652073686f756c642062652061626f766520302e4c4f473a2043616e6e6f742063616e63656c207468652061756374696f6e2c207468657265206172652076616c6964206269647320706c616365644c4f473a2043616e6e6f742077697468647261772066726f6d20616e206163746976652061756374696f6e2e4c4f473a2053656c6c657220646f6573206e6f74206f776e20746869732061737365742e4c4f473a2043616e6e6f7420656e642061756374696f6e206265666f72652074686520646561646c696e652e4c4f473a205468652061756374696f6e20697320616c7265616479206163746976652ea265627a7a723158205c2be486b8f807780eec8e32356f81921d5fd35ac90f5edeb1ceab273952028264736f6c63430005100032",
  "source": "/* \nAuthors: vaibhav.garg:anchit.gupta:preet.thakkar\nDate: 8th October\n\nThe main contract containing all the business logic\nfor the application, also provides the necessary \nmethods for the front-end\n*/\n\npragma solidity 0.5.16;\n\nimport \"./Asset.sol\";\n\ncontract BidKaroNa {\n  \n  // Struct definitions\n  enum AuctionStatus {Active, Inactive}\n\n  struct Bid {\n    address bidder;\n    uint256 amount;\n    uint256 timeStamp;\n  }\n\n  struct Auction {\n    Bid[] bids;\n    uint256 reservePrice;\n    address seller;\n    address assetAddress;\n    uint256 deadline;\n    string title;\n    mapping(address => uint256) refunds;\n    AuctionStatus status;\n  }\n\n  // State variables\n  address public owner;\n  Auction[] auctions;\n  mapping(address => bool) activeAssets;\n\n  // Modifiers\n  modifier onlySeller(uint256 auctionId) {\n    require(auctions[auctionId].seller == msg.sender);\n    _;\n  }\n\n  // Events\n  event LogFailure(string log);\n  event auctionCreated(uint256 auctionId, string title, address assetAddress, uint256 reservePrice, uint256 deadline);\n  event auctionActivated(uint256 auctionId);\n  event auctionEnded(uint256 actionId, string newOwner, address newOwnerAddress);\n  event auctionCancelled(uint256 auctionId);\n  event withdrewRefund(address bidder, uint256 auctionId, uint256 refundAmout);\n  event bidPlaced(uint256 auctionId, address bidder, uint256 bidAmount);\n\n  // Methods\n  constructor() public {\n    owner = msg.sender;\n  }\n\n  function partyOwnsAsset(address _party, address _assetAddress) public view returns (bool) {\n    Asset assetContract = Asset(_assetAddress);\n    return assetContract.getOwner() == _party;\n  }\n\n  function createAuction(\n                        address _assetAddress,\n                        uint256 _reservePrice,\n                        uint256 _deadline,\n                        string memory _title) public returns (int256) {\n    \n    // Check if the seller owns the asset\n    if (!partyOwnsAsset(msg.sender, _assetAddress)) {\n      emit LogFailure(\"LOG: Seller does not own this asset.\");\n      return -1;\n    }\n    \n    // Check if given deadline is in the future\n    if (block.timestamp >= _deadline) {\n      emit LogFailure(\"LOG: Invalid deadline.\");\n      return -1;\n    }\n\n    // Check if reserve price is valid\n    if (_reservePrice <= 0) {\n      emit LogFailure(\"LOG: Reserve price should be above 0.\");\n      return -1;\n    }\n\n    // Check if asset is not already on auction\n    if (activeAssets[_assetAddress]) {\n      emit LogFailure(\"LOG: Item is already on auction.\");\n      return -1;\n    }\n\n    // Creating the auction in Inactive State\n    uint256 auctionId = auctions.length++;\n    auctions[auctionId].reservePrice = _reservePrice;\n    auctions[auctionId].seller = msg.sender;\n    auctions[auctionId].assetAddress = _assetAddress;\n    auctions[auctionId].deadline = _deadline;\n    auctions[auctionId].title = _title;\n    auctions[auctionId].status = AuctionStatus.Inactive;\n    activeAssets[_assetAddress] = true;\n\n    emit auctionCreated(auctionId, _title, _assetAddress, _reservePrice, _deadline);\n    return int256(auctionId);\n  }\n\n  function activateAuction(uint256 auctionId) public onlySeller(auctionId) returns (bool) {\n    \n    if(block.timestamp >= auctions[auctionId].deadline) {\n      emit LogFailure(\"LOG: The deadline for auction has already passed.\"); \n      return false;\n    }\n    \n    if (!partyOwnsAsset(address(this), auctions[auctionId].assetAddress)){\n      emit LogFailure(\"LOG: Transfer ownership to BidKaroNa before activating the auction.\"); \n      return false;\n    }\n\n    if(auctions[auctionId].status == AuctionStatus.Active) {\n      emit LogFailure(\"LOG: The auction is already active.\"); \n      return false;\n    }\n    \n    auctions[auctionId].status = AuctionStatus.Active;\n    emit auctionActivated(auctionId);\n    return true;\n  }\n\n  function endAuction(uint256 auctionId) public returns (bool) {\n\n    // The deadline should be gone\n    if (block.timestamp < auctions[auctionId].deadline) {\n      emit LogFailure(\"LOG: Cannot end auction before the deadline.\"); \n      return false;\n    }\n\n    // Auction needs to be active, so that it is ended only once\n    if (auctions[auctionId].status == AuctionStatus.Inactive) {\n      emit LogFailure(\"LOG: Cannot end an already ended/cancelled auction.\"); \n      return false;\n    }\n\n    auctions[auctionId].status = AuctionStatus.Inactive;\n    Asset assetContract = Asset(auctions[auctionId].assetAddress);\n\n    string memory newOwner;\n    address newOwnerAddress;\n\n    // no valid bidds were placed\n    if(auctions[auctionId].bids.length == 0) {\n      // Tranferring ownership of asset back to the seller\n      assetContract.setOwner(auctions[auctionId].seller);\n      \n      newOwner = \"seller\";\n      newOwnerAddress = auctions[auctionId].seller;\n    }\n    else{\n      // Finding index corresponding to the highest bid\n      uint256 bidIdx = 0;\n      for(uint256 i=1; i<auctions[auctionId].bids.length; i++) {\n        if(auctions[auctionId].bids[i].amount > auctions[auctionId].bids[bidIdx].amount) {\n          bidIdx = i;\n        }\n      }\n\n      // Marking the asset on auction as inactive\n      activeAssets[auctions[auctionId].assetAddress] = false;\n\n      // Transferring the ownership to the highest bidder\n      assetContract.setOwner(auctions[auctionId].bids[bidIdx].bidder);\n\n      // Transferring the highest bid amount to the seller\n      auctions[auctionId].refunds[auctions[auctionId].bids[bidIdx].bidder] -= auctions[auctionId].bids[bidIdx].amount;\n      auctions[auctionId].refunds[auctions[auctionId].seller] += auctions[auctionId].bids[bidIdx].amount;\n      \n      newOwner = \"bidder\";\n      newOwnerAddress = auctions[auctionId].bids[bidIdx].bidder;\n    }\n\n    emit auctionEnded(auctionId, newOwner, newOwnerAddress);\n    return true;  \n  }\n\n  function cancelAuction(uint256 auctionId) public onlySeller(auctionId) returns (bool) {\n\n    if (auctions[auctionId].status == AuctionStatus.Inactive) {\n      emit LogFailure(\"LOG: Cannot cancel an inactive auction.\"); \n      return false;\n    }\n\n    if (block.timestamp >= auctions[auctionId].deadline) {\n      emit LogFailure(\"LOG: Cannot cancel an auction after the deadline.\"); \n      return false;\n    }\n\n    if (auctions[auctionId].bids.length > 0) {\n      emit LogFailure(\"LOG: Cannot cancel the auction, there are valid bids placed\");\n      return false;\n    }\n\n    auctions[auctionId].status = AuctionStatus.Inactive;\n    emit auctionCancelled(auctionId);\n    return true;\n  }\n\n  function withdrawRefund(uint256 auctionId) public returns (bool) {\n\n    // Cannot withdraw from an active auction\n    if(auctions[auctionId].status == AuctionStatus.Active) {\n      emit LogFailure(\"LOG: Cannot withdraw from an active auction.\");\n      return false;\n    }\n\n    uint256 refund = auctions[auctionId].refunds[msg.sender];\n    auctions[auctionId].refunds[msg.sender] = 0;\n    \n    if (!msg.sender.send(refund)){\n      emit LogFailure(\"LOG: Unable to transfer ethers.\");\n      auctions[auctionId].refunds[msg.sender] = refund;\n      return false;\n    }\n\n    emit withdrewRefund(msg.sender, auctionId, refund);\n    return true;\n  }\n\n  function placeBid(uint256 auctionId) public payable returns (bool) {\n    \n    // inactive auction\n    if (auctions[auctionId].status == AuctionStatus.Inactive) {\n      emit LogFailure(\"LOG: Auction not active.\");\n      return false;\n    }\n\n    // bid should be greater than reserve price\n    if (msg.value < auctions[auctionId].reservePrice) {\n      emit LogFailure(\"LOG: Amount less than the reserve price.\");\n      return false;\n    }\n\n    uint256 bidId = auctions[auctionId].bids.length++;\n    auctions[auctionId].bids[bidId].bidder = msg.sender;\n    auctions[auctionId].bids[bidId].amount = msg.value;\n    auctions[auctionId].bids[bidId].timeStamp = block.timestamp;\n\n    auctions[auctionId].refunds[msg.sender] += msg.value;\n\n    emit bidPlaced(auctionId, msg.sender, msg.value);\n    return true;\n  }\n\n  function getAuctionsLength() public view returns(uint256) {\n    return auctions.length;\n  }\n\n  function getAuctionDetails(uint256 auctionId) public view returns(\n    address, address, string memory, uint256, uint256, AuctionStatus\n  ) {\n\n    return (\n      auctions[auctionId].seller,\n      auctions[auctionId].assetAddress,\n      auctions[auctionId].title,\n      auctions[auctionId].deadline,\n      auctions[auctionId].reservePrice,\n      auctions[auctionId].status\n    );\n  }\n}\n",
  "sourcePath": "/home/preet/IIIT/4-1/Principles of Information Security/Project/BidKaroNa/contracts/BidKaroNa.sol",
  "compiler": {
    "name": "solc",
    "version": "0.5.16+commit.9c3226ce.Emscripten.clang"
  },
  "schemaVersion": "3.2.5",
  "updatedAt": "2020-10-16T17:50:10.497Z",
  "devdoc": {
    "methods": {}
  },
  "userdoc": {
    "methods": {}
  }
}