{
  "contractName": "BidKaroNa",
  "abi": [
    {
      "inputs": [
        {
          "internalType": "address",
          "name": "_owner",
          "type": "address"
        }
      ],
      "payable": false,
      "stateMutability": "nonpayable",
      "type": "constructor"
    },
    {
      "anonymous": false,
      "inputs": [
        {
          "indexed": false,
          "internalType": "string",
          "name": "log",
          "type": "string"
        }
      ],
      "name": "LogFailure",
      "type": "event"
    },
    {
      "constant": true,
      "inputs": [],
      "name": "owner",
      "outputs": [
        {
          "internalType": "address",
          "name": "",
          "type": "address"
        }
      ],
      "payable": false,
      "stateMutability": "view",
      "type": "function"
    },
    {
      "constant": true,
      "inputs": [
        {
          "internalType": "address",
          "name": "_party",
          "type": "address"
        },
        {
          "internalType": "address",
          "name": "_assetAddress",
          "type": "address"
        }
      ],
      "name": "partyOwnsAsset",
      "outputs": [
        {
          "internalType": "bool",
          "name": "",
          "type": "bool"
        }
      ],
      "payable": false,
      "stateMutability": "view",
      "type": "function"
    },
    {
      "constant": false,
      "inputs": [
        {
          "internalType": "address",
          "name": "_assetAddress",
          "type": "address"
        },
        {
          "internalType": "uint256",
          "name": "_reservePrice",
          "type": "uint256"
        },
        {
          "internalType": "uint256",
          "name": "_deadline",
          "type": "uint256"
        },
        {
          "internalType": "string",
          "name": "_title",
          "type": "string"
        }
      ],
      "name": "createAuction",
      "outputs": [
        {
          "internalType": "uint256",
          "name": "",
          "type": "uint256"
        }
      ],
      "payable": false,
      "stateMutability": "nonpayable",
      "type": "function"
    },
    {
      "constant": false,
      "inputs": [
        {
          "internalType": "uint256",
          "name": "auctionId",
          "type": "uint256"
        }
      ],
      "name": "activateAuction",
      "outputs": [
        {
          "internalType": "bool",
          "name": "",
          "type": "bool"
        }
      ],
      "payable": false,
      "stateMutability": "nonpayable",
      "type": "function"
    },
    {
      "constant": false,
      "inputs": [
        {
          "internalType": "uint256",
          "name": "auctionId",
          "type": "uint256"
        }
      ],
      "name": "endAuction",
      "outputs": [
        {
          "internalType": "bool",
          "name": "",
          "type": "bool"
        }
      ],
      "payable": false,
      "stateMutability": "nonpayable",
      "type": "function"
    },
    {
      "constant": false,
      "inputs": [
        {
          "internalType": "uint256",
          "name": "auctionId",
          "type": "uint256"
        }
      ],
      "name": "cancelAuction",
      "outputs": [
        {
          "internalType": "bool",
          "name": "",
          "type": "bool"
        }
      ],
      "payable": false,
      "stateMutability": "nonpayable",
      "type": "function"
    },
    {
      "constant": false,
      "inputs": [
        {
          "internalType": "uint256",
          "name": "auctionId",
          "type": "uint256"
        }
      ],
      "name": "withdrawRefund",
      "outputs": [
        {
          "internalType": "bool",
          "name": "",
          "type": "bool"
        }
      ],
      "payable": false,
      "stateMutability": "nonpayable",
      "type": "function"
    },
    {
      "constant": false,
      "inputs": [
        {
          "internalType": "uint256",
          "name": "auctionId",
          "type": "uint256"
        }
      ],
      "name": "placeBid",
      "outputs": [
        {
          "internalType": "bool",
          "name": "",
          "type": "bool"
        }
      ],
      "payable": true,
      "stateMutability": "payable",
      "type": "function"
    }
  ],
  "bytecode": "0x608060405234801561001057600080fd5b50604051611f62380380611f628339818101604052602081101561003357600080fd5b8101908080519060200190929190505050806000806101000a81548173ffffffffffffffffffffffffffffffffffffffff021916908373ffffffffffffffffffffffffffffffffffffffff16021790555050611ece806100946000396000f3fe60806040526004361061007b5760003560e01c806396b5a7551161004e57806396b5a755146102c35780639979ef45146103165780639d1534951461035c578063b9a2de3a146103af5761007b565b80633407489b1461008057806353488f0a146101905780638647c283146101e35780638da5cb5b1461026c575b600080fd5b34801561008c57600080fd5b5061017a600480360360808110156100a357600080fd5b81019080803573ffffffffffffffffffffffffffffffffffffffff1690602001909291908035906020019092919080359060200190929190803590602001906401000000008111156100f457600080fd5b82018360208201111561010657600080fd5b8035906020019184600183028401116401000000008311171561012857600080fd5b91908080601f016020809104026020016040519081016040528093929190818152602001838380828437600081840152601f19601f820116905080830192505050505050509192919290505050610402565b6040518082815260200191505060405180910390f35b34801561019c57600080fd5b506101c9600480360360208110156101b357600080fd5b81019080803590602001909291905050506107db565b604051808215151515815260200191505060405180910390f35b3480156101ef57600080fd5b506102526004803603604081101561020657600080fd5b81019080803573ffffffffffffffffffffffffffffffffffffffff169060200190929190803573ffffffffffffffffffffffffffffffffffffffff169060200190929190505050610a56565b604051808215151515815260200191505060405180910390f35b34801561027857600080fd5b50610281610b14565b604051808273ffffffffffffffffffffffffffffffffffffffff1673ffffffffffffffffffffffffffffffffffffffff16815260200191505060405180910390f35b3480156102cf57600080fd5b506102fc600480360360208110156102e657600080fd5b8101908080359060200190929190505050610b39565b604051808215151515815260200191505060405180910390f35b6103426004803603602081101561032c57600080fd5b8101908080359060200190929190505050610d90565b604051808215151515815260200191505060405180910390f35b34801561036857600080fd5b506103956004803603602081101561037f57600080fd5b8101908080359060200190929190505050611065565b604051808215151515815260200191505060405180910390f35b3480156103bb57600080fd5b506103e8600480360360208110156103d257600080fd5b81019080803590602001909291905050506112db565b604051808215151515815260200191505060405180910390f35b600061040e3386610a56565b610462577fa2db52a45d71264723caeac03c235d51bb30cff5e1ac71c97a5842ec94fbb6af604051808060200182810382526024815260200180611e276024913960400191505060405180910390a1600080fd5b8242106104d6577fa2db52a45d71264723caeac03c235d51bb30cff5e1ac71c97a5842ec94fbb6af6040518080602001828103825260168152602001807f4c4f473a20496e76616c696420646561646c696e652e0000000000000000000081525060200191505060405180910390a1600080fd5b6000841161052e577fa2db52a45d71264723caeac03c235d51bb30cff5e1ac71c97a5842ec94fbb6af604051808060200182810382526025815260200180611d9b6025913960400191505060405180910390a1600080fd5b600260008673ffffffffffffffffffffffffffffffffffffffff1673ffffffffffffffffffffffffffffffffffffffff16815260200190815260200160002060009054906101000a900460ff16156105ed577fa2db52a45d71264723caeac03c235d51bb30cff5e1ac71c97a5842ec94fbb6af6040518080602001828103825260208152602001807f4c4f473a204974656d20697320616c7265616479206f6e2061756374696f6e2e81525060200191505060405180910390a1600080fd5b60006001805480919060010161060391906119f7565b9050846001828154811061061357fe5b906000526020600020906008020160010181905550336001828154811061063657fe5b906000526020600020906008020160020160006101000a81548173ffffffffffffffffffffffffffffffffffffffff021916908373ffffffffffffffffffffffffffffffffffffffff160217905550856001828154811061069357fe5b906000526020600020906008020160030160006101000a81548173ffffffffffffffffffffffffffffffffffffffff021916908373ffffffffffffffffffffffffffffffffffffffff16021790555083600182815481106106f057fe5b906000526020600020906008020160040181905550826001828154811061071357fe5b90600052602060002090600802016005019080519060200190610737929190611a29565b50600180828154811061074657fe5b906000526020600020906008020160070160006101000a81548160ff0219169083600181111561077257fe5b02179055506001600260008873ffffffffffffffffffffffffffffffffffffffff1673ffffffffffffffffffffffffffffffffffffffff16815260200190815260200160002060006101000a81548160ff02191690831515021790555080915050949350505050565b6000813373ffffffffffffffffffffffffffffffffffffffff166001828154811061080257fe5b906000526020600020906008020160020160009054906101000a900473ffffffffffffffffffffffffffffffffffffffff1673ffffffffffffffffffffffffffffffffffffffff161461085457600080fd5b6001838154811061086157fe5b90600052602060002090600802016004015442106108cd577fa2db52a45d71264723caeac03c235d51bb30cff5e1ac71c97a5842ec94fbb6af604051808060200182810382526031815260200180611d6a6031913960400191505060405180910390a160009150610a50565b61091530600185815481106108de57fe5b906000526020600020906008020160030160009054906101000a900473ffffffffffffffffffffffffffffffffffffffff16610a56565b61096d577fa2db52a45d71264723caeac03c235d51bb30cff5e1ac71c97a5842ec94fbb6af604051808060200182810382526043815260200180611c9c6043913960600191505060405180910390a160009150610a50565b6000600181111561097a57fe5b6001848154811061098757fe5b906000526020600020906008020160070160009054906101000a900460ff1660018111156109b157fe5b1415610a0b577fa2db52a45d71264723caeac03c235d51bb30cff5e1ac71c97a5842ec94fbb6af604051808060200182810382526023815260200180611e776023913960400191505060405180910390a160009150610a50565b600060018481548110610a1a57fe5b906000526020600020906008020160070160006101000a81548160ff02191690836001811115610a4657fe5b0217905550600191505b50919050565b6000808290508373ffffffffffffffffffffffffffffffffffffffff168173ffffffffffffffffffffffffffffffffffffffff1663893d20e86040518163ffffffff1660e01b815260040160206040518083038186803b158015610ab957600080fd5b505afa158015610acd573d6000803e3d6000fd5b505050506040513d6020811015610ae357600080fd5b810190808051906020019092919050505073ffffffffffffffffffffffffffffffffffffffff161491505092915050565b6000809054906101000a900473ffffffffffffffffffffffffffffffffffffffff1681565b6000813373ffffffffffffffffffffffffffffffffffffffff1660018281548110610b6057fe5b906000526020600020906008020160020160009054906101000a900473ffffffffffffffffffffffffffffffffffffffff1673ffffffffffffffffffffffffffffffffffffffff1614610bb257600080fd5b600180811115610bbe57fe5b60018481548110610bcb57fe5b906000526020600020906008020160070160009054906101000a900460ff166001811115610bf557fe5b1415610c4f577fa2db52a45d71264723caeac03c235d51bb30cff5e1ac71c97a5842ec94fbb6af604051808060200182810382526027815260200180611d436027913960400191505060405180910390a160009150610d8a565b60018381548110610c5c57fe5b9060005260206000209060080201600401544210610cc8577fa2db52a45d71264723caeac03c235d51bb30cff5e1ac71c97a5842ec94fbb6af604051808060200182810382526031815260200180611d126031913960400191505060405180910390a160009150610d8a565b600060018481548110610cd757fe5b9060005260206000209060080201600001805490501115610d46577fa2db52a45d71264723caeac03c235d51bb30cff5e1ac71c97a5842ec94fbb6af60405180806020018281038252603b815260200180611dc0603b913960400191505060405180910390a160009150610d8a565b6001808481548110610d5457fe5b906000526020600020906008020160070160006101000a81548160ff02191690836001811115610d8057fe5b0217905550600191505b50919050565b6000600180811115610d9e57fe5b60018381548110610dab57fe5b906000526020600020906008020160070160009054906101000a900460ff166001811115610dd557fe5b1415610e4c577fa2db52a45d71264723caeac03c235d51bb30cff5e1ac71c97a5842ec94fbb6af6040518080602001828103825260188152602001807f4c4f473a2041756374696f6e206e6f74206163746976652e000000000000000081525060200191505060405180910390a160009050611060565b60018281548110610e5957fe5b906000526020600020906008020160010154341015610ec6577fa2db52a45d71264723caeac03c235d51bb30cff5e1ac71c97a5842ec94fbb6af604051808060200182810382526028815260200180611c746028913960400191505060405180910390a160009050611060565b600060018381548110610ed557fe5b90600052602060002090600802016000018054809190600101610ef89190611aa9565b90503360018481548110610f0857fe5b90600052602060002090600802016000018281548110610f2457fe5b906000526020600020906003020160000160006101000a81548173ffffffffffffffffffffffffffffffffffffffff021916908373ffffffffffffffffffffffffffffffffffffffff1602179055503460018481548110610f8157fe5b90600052602060002090600802016000018281548110610f9d57fe5b9060005260206000209060030201600101819055504260018481548110610fc057fe5b90600052602060002090600802016000018281548110610fdc57fe5b9060005260206000209060030201600201819055503460018481548110610fff57fe5b906000526020600020906008020160060160003373ffffffffffffffffffffffffffffffffffffffff1673ffffffffffffffffffffffffffffffffffffffff1681526020019081526020016000206000828254019250508190555060019150505b919050565b600080600181111561107357fe5b6001838154811061108057fe5b906000526020600020906008020160070160009054906101000a900460ff1660018111156110aa57fe5b1415611104577fa2db52a45d71264723caeac03c235d51bb30cff5e1ac71c97a5842ec94fbb6af60405180806020018281038252602c815260200180611dfb602c913960400191505060405180910390a1600090506112d6565b60006001838154811061111357fe5b906000526020600020906008020160060160003373ffffffffffffffffffffffffffffffffffffffff1673ffffffffffffffffffffffffffffffffffffffff16815260200190815260200160002054905060006001848154811061117357fe5b906000526020600020906008020160060160003373ffffffffffffffffffffffffffffffffffffffff1673ffffffffffffffffffffffffffffffffffffffff168152602001908152602001600020819055503373ffffffffffffffffffffffffffffffffffffffff166108fc829081150290604051600060405180830381858888f193505050506112d0577fa2db52a45d71264723caeac03c235d51bb30cff5e1ac71c97a5842ec94fbb6af60405180806020018281038252601f8152602001807f4c4f473a20556e61626c6520746f207472616e73666572206574686572732e0081525060200191505060405180910390a1806001848154811061127457fe5b906000526020600020906008020160060160003373ffffffffffffffffffffffffffffffffffffffff1673ffffffffffffffffffffffffffffffffffffffff1681526020019081526020016000208190555060009150506112d6565b60019150505b919050565b6000600182815481106112ea57fe5b906000526020600020906008020160040154421015611357577fa2db52a45d71264723caeac03c235d51bb30cff5e1ac71c97a5842ec94fbb6af60405180806020018281038252602c815260200180611e4b602c913960400191505060405180910390a1600090506119f2565b60018081111561136357fe5b6001838154811061137057fe5b906000526020600020906008020160070160009054906101000a900460ff16600181111561139a57fe5b14156113f4577fa2db52a45d71264723caeac03c235d51bb30cff5e1ac71c97a5842ec94fbb6af604051808060200182810382526033815260200180611cdf6033913960400191505060405180910390a1600090506119f2565b600180838154811061140257fe5b906000526020600020906008020160070160006101000a81548160ff0219169083600181111561142e57fe5b021790555060006001838154811061144257fe5b906000526020600020906008020160030160009054906101000a900473ffffffffffffffffffffffffffffffffffffffff16905060006001848154811061148557fe5b906000526020600020906008020160000180549050141561159e578073ffffffffffffffffffffffffffffffffffffffff166313af4035600185815481106114c957fe5b906000526020600020906008020160020160009054906101000a900473ffffffffffffffffffffffffffffffffffffffff166040518263ffffffff1660e01b8152600401808273ffffffffffffffffffffffffffffffffffffffff1673ffffffffffffffffffffffffffffffffffffffff168152602001915050602060405180830381600087803b15801561155d57600080fd5b505af1158015611571573d6000803e3d6000fd5b505050506040513d602081101561158757600080fd5b8101908080519060200190929190505050506119ec565b60008090506000600190505b600185815481106115b757fe5b90600052602060002090600802016000018054905081101561166057600185815481106115e057fe5b906000526020600020906008020160000182815481106115fc57fe5b9060005260206000209060030201600101546001868154811061161b57fe5b9060005260206000209060080201600001828154811061163757fe5b9060005260206000209060030201600101541115611653578091505b80806001019150506115aa565b506000600260006001878154811061167457fe5b906000526020600020906008020160030160009054906101000a900473ffffffffffffffffffffffffffffffffffffffff1673ffffffffffffffffffffffffffffffffffffffff1673ffffffffffffffffffffffffffffffffffffffff16815260200190815260200160002060006101000a81548160ff0219169083151502179055508173ffffffffffffffffffffffffffffffffffffffff166313af40356001868154811061172057fe5b9060005260206000209060080201600001838154811061173c57fe5b906000526020600020906003020160000160009054906101000a900473ffffffffffffffffffffffffffffffffffffffff166040518263ffffffff1660e01b8152600401808273ffffffffffffffffffffffffffffffffffffffff1673ffffffffffffffffffffffffffffffffffffffff168152602001915050602060405180830381600087803b1580156117d057600080fd5b505af11580156117e4573d6000803e3d6000fd5b505050506040513d60208110156117fa57600080fd5b8101908080519060200190929190505050506001848154811061181957fe5b9060005260206000209060080201600001818154811061183557fe5b9060005260206000209060030201600101546001858154811061185457fe5b906000526020600020906008020160060160006001878154811061187457fe5b9060005260206000209060080201600001848154811061189057fe5b906000526020600020906003020160000160009054906101000a900473ffffffffffffffffffffffffffffffffffffffff1673ffffffffffffffffffffffffffffffffffffffff1673ffffffffffffffffffffffffffffffffffffffff168152602001908152602001600020600082825403925050819055506001848154811061191657fe5b9060005260206000209060080201600001818154811061193257fe5b9060005260206000209060030201600101546001858154811061195157fe5b906000526020600020906008020160060160006001878154811061197157fe5b906000526020600020906008020160020160009054906101000a900473ffffffffffffffffffffffffffffffffffffffff1673ffffffffffffffffffffffffffffffffffffffff1673ffffffffffffffffffffffffffffffffffffffff16815260200190815260200160002060008282540192505081905550505b60019150505b919050565b815481835581811115611a2457600802816008028360005260206000209182019101611a239190611adb565b5b505050565b828054600181600116156101000203166002900490600052602060002090601f016020900481019282601f10611a6a57805160ff1916838001178555611a98565b82800160010185558215611a98579182015b82811115611a97578251825591602001919060010190611a7c565b5b509050611aa59190611b8c565b5090565b815481835581811115611ad657600302816003028360005260206000209182019101611ad59190611bb1565b5b505050565b611b8991905b80821115611b855760008082016000611afa9190611c07565b60018201600090556002820160006101000a81549073ffffffffffffffffffffffffffffffffffffffff02191690556003820160006101000a81549073ffffffffffffffffffffffffffffffffffffffff02191690556004820160009055600582016000611b689190611c2b565b6007820160006101000a81549060ff021916905550600801611ae1565b5090565b90565b611bae91905b80821115611baa576000816000905550600101611b92565b5090565b90565b611c0491905b80821115611c0057600080820160006101000a81549073ffffffffffffffffffffffffffffffffffffffff02191690556001820160009055600282016000905550600301611bb7565b5090565b90565b5080546000825560030290600052602060002090810190611c289190611bb1565b50565b50805460018160011615610100020316600290046000825580601f10611c515750611c70565b601f016020900490600052602060002090810190611c6f9190611b8c565b5b5056fe4c4f473a20416d6f756e74206c657373207468616e2074686520726573657276652070726963652e4c4f473a205472616e73666572206f776e65727368697020746f204269644b61726f4e61206265666f72652061637469766174696e67207468652061756374696f6e2e4c4f473a2043616e6e6f7420656e6420616e20616c726561647920656e6465642f63616e63656c6c65642061756374696f6e2e4c4f473a2043616e6e6f742063616e63656c20616e2061756374696f6e2061667465722074686520646561646c696e652e4c4f473a2043616e6e6f742063616e63656c20616e20696e6163746976652061756374696f6e2e4c4f473a2054686520646561646c696e6520666f722061756374696f6e2068617320616c7265616479207061737365642e4c4f473a20526573657276652070726963652073686f756c642062652061626f766520302e4c4f473a2043616e6e6f742063616e63656c207468652061756374696f6e2c207468657265206172652076616c6964206269647320706c616365644c4f473a2043616e6e6f742077697468647261772066726f6d20616e206163746976652061756374696f6e2e4c4f473a2053656c6c657220646f6573206e6f74206f776e20746869732061737365742e4c4f473a2043616e6e6f7420656e642061756374696f6e206265666f72652074686520646561646c696e652e4c4f473a205468652061756374696f6e20697320616c7265616479206163746976652ea265627a7a72315820439c6e0d1834730b6378be7b10e5115ded6546d7594f921fc1d0c5e6d4c15f3664736f6c63430005100032",
  "source": "/* \nAuthors: vaibhav.garg:anchit.gupta:preet.thakkar\nDate: 8th October\n\nThe main contract containing all the business logic\nfor the application, also provides the necessary \nmethods for the front-end\n*/\n\npragma solidity 0.5.16;\n\nimport \"./Asset.sol\";\n\ncontract BidKaroNa {\n  \n  // Struct definitions\n  enum AuctionStatus {Active, Inactive}\n\n  struct Bid {\n    address bidder;\n    uint256 amount;\n    uint256 timeStamp;\n  }\n\n  struct Auction {\n    Bid[] bids;\n    uint256 reservePrice;\n    address seller;\n    address assetAddress;\n    uint256 deadline;\n    string title;\n    mapping(address => uint256) refunds;\n    AuctionStatus status;\n  }\n\n  // State variables\n  address public owner;\n  Auction[] auctions;\n  mapping(address => bool) activeAssets;\n\n  // Modifiers\n  modifier onlySeller(uint256 auctionId) {\n    require(auctions[auctionId].seller == msg.sender);\n    _;\n  }\n\n  // Events\n  event LogFailure(string log);\n\n  // Methods\n  constructor(address _owner) public {\n    owner = _owner;\n  }\n\n  function partyOwnsAsset(address _party, address _assetAddress) public view returns (bool) {\n    Asset assetContract = Asset(_assetAddress);\n    return assetContract.getOwner() == _party;\n  }\n\n  function createAuction(\n                        address _assetAddress,\n                        uint256 _reservePrice,\n                        uint256 _deadline,\n                        string memory _title) public returns (uint256) {\n    \n    // Check if the seller owns the asset\n    if (!partyOwnsAsset(msg.sender, _assetAddress)) {\n      emit LogFailure(\"LOG: Seller does not own this asset.\");\n      revert();\n    }\n    \n    // Check if given deadline is in the future\n    if (block.timestamp >= _deadline) {\n      emit LogFailure(\"LOG: Invalid deadline.\");\n      revert();\n    }\n\n    // Check if reserve price is valid\n    if (_reservePrice <= 0) {\n      emit LogFailure(\"LOG: Reserve price should be above 0.\");\n      revert();\n    }\n\n    // Check if asset is not already on auction\n    if (activeAssets[_assetAddress]) {\n      emit LogFailure(\"LOG: Item is already on auction.\");\n      revert();\n    }\n\n    // Creating the auction in Inactive State\n    uint256 auctionId = auctions.length++;\n    auctions[auctionId].reservePrice = _reservePrice;\n    auctions[auctionId].seller = msg.sender;\n    auctions[auctionId].assetAddress = _assetAddress;\n    auctions[auctionId].deadline = _deadline;\n    auctions[auctionId].title = _title;\n    auctions[auctionId].status = AuctionStatus.Inactive;\n    activeAssets[_assetAddress] = true;\n\n    return auctionId;\n  }\n\n  function activateAuction(uint256 auctionId) public onlySeller(auctionId) returns (bool) {\n    \n    if(block.timestamp >= auctions[auctionId].deadline) {\n      emit LogFailure(\"LOG: The deadline for auction has already passed.\"); \n      return false;\n    }\n    \n    if (!partyOwnsAsset(address(this), auctions[auctionId].assetAddress)){\n      emit LogFailure(\"LOG: Transfer ownership to BidKaroNa before activating the auction.\"); \n      return false;\n    }\n\n    if(auctions[auctionId].status == AuctionStatus.Active) {\n      emit LogFailure(\"LOG: The auction is already active.\"); \n      return false;\n    }\n    \n    auctions[auctionId].status = AuctionStatus.Active;\n    return true;\n  }\n\n  function endAuction(uint256 auctionId) public returns (bool) {\n\n    // The deadline should be gone\n    if (block.timestamp < auctions[auctionId].deadline) {\n      emit LogFailure(\"LOG: Cannot end auction before the deadline.\"); \n      return false;\n    }\n\n    // Auction needs to be active, so that it is ended only once\n    if (auctions[auctionId].status == AuctionStatus.Inactive) {\n      emit LogFailure(\"LOG: Cannot end an already ended/cancelled auction.\"); \n      return false;\n    }\n\n    auctions[auctionId].status = AuctionStatus.Inactive;\n    Asset assetContract = Asset(auctions[auctionId].assetAddress);\n\n    // no valid bidds were placed\n    if(auctions[auctionId].bids.length == 0) {\n      // Tranferring ownership of asset back to the seller\n      assetContract.setOwner(auctions[auctionId].seller);\n    }\n    else{\n      // Finding index corresponding to the highest bid\n      uint256 bidIdx = 0;\n      for(uint256 i=1; i<auctions[auctionId].bids.length; i++) {\n        if(auctions[auctionId].bids[i].amount > auctions[auctionId].bids[bidIdx].amount) {\n          bidIdx = i;\n        }\n      }\n\n      // Marking the asset on auction as inactive\n      activeAssets[auctions[auctionId].assetAddress] = false;\n\n      // Transferring the ownership to the highest bidder\n      assetContract.setOwner(auctions[auctionId].bids[bidIdx].bidder);\n\n      // Transferring the highest bid amount to the seller\n      auctions[auctionId].refunds[auctions[auctionId].bids[bidIdx].bidder] -= auctions[auctionId].bids[bidIdx].amount;\n      auctions[auctionId].refunds[auctions[auctionId].seller] += auctions[auctionId].bids[bidIdx].amount;\n    }\n    return true;  \n  }\n\n  function cancelAuction(uint256 auctionId) public onlySeller(auctionId) returns (bool) {\n\n    if (auctions[auctionId].status == AuctionStatus.Inactive) {\n      emit LogFailure(\"LOG: Cannot cancel an inactive auction.\"); \n      return false;\n    }\n\n    if (block.timestamp >= auctions[auctionId].deadline) {\n      emit LogFailure(\"LOG: Cannot cancel an auction after the deadline.\"); \n      return false;\n    }\n\n    if (auctions[auctionId].bids.length > 0) {\n      emit LogFailure(\"LOG: Cannot cancel the auction, there are valid bids placed\");\n      return false;\n    }\n\n    auctions[auctionId].status = AuctionStatus.Inactive;\n    return true;\n\n  }\n\n  function withdrawRefund(uint256 auctionId) public returns (bool) {\n\n    // Cannot withdraw from an active auction\n    if(auctions[auctionId].status == AuctionStatus.Active) {\n      emit LogFailure(\"LOG: Cannot withdraw from an active auction.\");\n      return false;\n    }\n\n    uint256 refund = auctions[auctionId].refunds[msg.sender];\n    auctions[auctionId].refunds[msg.sender] = 0;\n    \n    if (!msg.sender.send(refund)){\n      emit LogFailure(\"LOG: Unable to transfer ethers.\");\n      auctions[auctionId].refunds[msg.sender] = refund;\n      return false;\n    }\n\n    return true;\n  }\n\n  function placeBid(uint256 auctionId) public payable returns (bool) {\n    \n    // inactive auction\n    if (auctions[auctionId].status == AuctionStatus.Inactive) {\n      emit LogFailure(\"LOG: Auction not active.\");\n      return false;\n    }\n\n    // bid should be greater than reserve price\n    if (msg.value < auctions[auctionId].reservePrice) {\n      emit LogFailure(\"LOG: Amount less than the reserve price.\");\n      return false;\n    }\n\n    uint256 bidId = auctions[auctionId].bids.length++;\n    auctions[auctionId].bids[bidId].bidder = msg.sender;\n    auctions[auctionId].bids[bidId].amount = msg.value;\n    auctions[auctionId].bids[bidId].timeStamp = block.timestamp;\n\n    auctions[auctionId].refunds[msg.sender] += msg.value;\n\n    return true;\n  }\n\n}\n",
  "sourcePath": "/home/preet/IIIT/4-1/Principles of Information Security/Project/BidKaroNa/contracts/BidKaroNa.sol",
  "compiler": {
    "name": "solc",
    "version": "0.5.16+commit.9c3226ce.Emscripten.clang"
  },
  "schemaVersion": "3.2.5",
  "updatedAt": "2020-10-14T16:39:02.409Z",
  "devdoc": {
    "methods": {}
  },
  "userdoc": {
    "methods": {}
  }
}