{
  "contractName": "BidKaroNa",
  "abi": [
    {
      "inputs": [],
      "payable": false,
      "stateMutability": "nonpayable",
      "type": "constructor"
    },
    {
      "anonymous": false,
      "inputs": [
        {
          "indexed": false,
          "internalType": "string",
          "name": "log",
          "type": "string"
        }
      ],
      "name": "LogFailure",
      "type": "event"
    },
    {
      "constant": true,
      "inputs": [],
      "name": "owner",
      "outputs": [
        {
          "internalType": "address",
          "name": "",
          "type": "address"
        }
      ],
      "payable": false,
      "stateMutability": "view",
      "type": "function"
    },
    {
      "constant": true,
      "inputs": [
        {
          "internalType": "address",
          "name": "_party",
          "type": "address"
        },
        {
          "internalType": "address",
          "name": "_assetAddress",
          "type": "address"
        }
      ],
      "name": "partyOwnsAsset",
      "outputs": [
        {
          "internalType": "bool",
          "name": "",
          "type": "bool"
        }
      ],
      "payable": false,
      "stateMutability": "view",
      "type": "function"
    },
    {
      "constant": false,
      "inputs": [
        {
          "internalType": "address",
          "name": "_assetAddress",
          "type": "address"
        },
        {
          "internalType": "uint256",
          "name": "_reservePrice",
          "type": "uint256"
        },
        {
          "internalType": "uint256",
          "name": "_deadline",
          "type": "uint256"
        },
        {
          "internalType": "string",
          "name": "_title",
          "type": "string"
        }
      ],
      "name": "createAuction",
      "outputs": [
        {
          "internalType": "uint256",
          "name": "",
          "type": "uint256"
        }
      ],
      "payable": false,
      "stateMutability": "nonpayable",
      "type": "function"
    },
    {
      "constant": false,
      "inputs": [
        {
          "internalType": "uint256",
          "name": "auctionId",
          "type": "uint256"
        }
      ],
      "name": "activateAuction",
      "outputs": [
        {
          "internalType": "bool",
          "name": "",
          "type": "bool"
        }
      ],
      "payable": false,
      "stateMutability": "nonpayable",
      "type": "function"
    },
    {
      "constant": false,
      "inputs": [
        {
          "internalType": "uint256",
          "name": "auctionId",
          "type": "uint256"
        }
      ],
      "name": "endAuction",
      "outputs": [
        {
          "internalType": "bool",
          "name": "",
          "type": "bool"
        }
      ],
      "payable": false,
      "stateMutability": "nonpayable",
      "type": "function"
    },
    {
      "constant": false,
      "inputs": [
        {
          "internalType": "uint256",
          "name": "auctionId",
          "type": "uint256"
        }
      ],
      "name": "cancelAuction",
      "outputs": [
        {
          "internalType": "bool",
          "name": "",
          "type": "bool"
        }
      ],
      "payable": false,
      "stateMutability": "nonpayable",
      "type": "function"
    },
    {
      "constant": false,
      "inputs": [
        {
          "internalType": "uint256",
          "name": "auctionId",
          "type": "uint256"
        }
      ],
      "name": "withdrawRefund",
      "outputs": [
        {
          "internalType": "bool",
          "name": "",
          "type": "bool"
        }
      ],
      "payable": false,
      "stateMutability": "nonpayable",
      "type": "function"
    },
    {
      "constant": false,
      "inputs": [
        {
          "internalType": "uint256",
          "name": "auctionId",
          "type": "uint256"
        }
      ],
      "name": "placeBid",
      "outputs": [
        {
          "internalType": "bool",
          "name": "",
          "type": "bool"
        }
      ],
      "payable": true,
      "stateMutability": "payable",
      "type": "function"
    },
    {
      "constant": false,
      "inputs": [],
      "name": "getAuctionsLength",
      "outputs": [
        {
          "internalType": "uint256",
          "name": "",
          "type": "uint256"
        }
      ],
      "payable": false,
      "stateMutability": "nonpayable",
      "type": "function"
    },
    {
      "constant": false,
      "inputs": [
        {
          "internalType": "uint256",
          "name": "auctionId",
          "type": "uint256"
        }
      ],
      "name": "getAuctionDetails",
      "outputs": [
        {
          "internalType": "address",
          "name": "",
          "type": "address"
        },
        {
          "internalType": "address",
          "name": "",
          "type": "address"
        },
        {
          "internalType": "string",
          "name": "",
          "type": "string"
        },
        {
          "internalType": "uint256",
          "name": "",
          "type": "uint256"
        },
        {
          "internalType": "uint256",
          "name": "",
          "type": "uint256"
        },
        {
          "internalType": "enum BidKaroNa.AuctionStatus",
          "name": "",
          "type": "uint8"
        }
      ],
      "payable": false,
      "stateMutability": "nonpayable",
      "type": "function"
    }
  ],
  "bytecode": "0x608060405234801561001057600080fd5b50336000806101000a81548173ffffffffffffffffffffffffffffffffffffffff021916908373ffffffffffffffffffffffffffffffffffffffff16021790555061221a806100606000396000f3fe6080604052600436106100915760003560e01c80639979ef45116100595780639979ef451461032c5780639d15349514610372578063b9a2de3a146103c5578063dbe3500714610418578063f20e5e351461044357610091565b80633407489b1461009657806353488f0a146101a65780638647c283146101f95780638da5cb5b1461028257806396b5a755146102d9575b600080fd5b3480156100a257600080fd5b50610190600480360360808110156100b957600080fd5b81019080803573ffffffffffffffffffffffffffffffffffffffff16906020019092919080359060200190929190803590602001909291908035906020019064010000000081111561010a57600080fd5b82018360208201111561011c57600080fd5b8035906020019184600183028401116401000000008311171561013e57600080fd5b91908080601f016020809104026020016040519081016040528093929190818152602001838380828437600081840152601f19601f820116905080830192505050505050509192919290505050610580565b6040518082815260200191505060405180910390f35b3480156101b257600080fd5b506101df600480360360208110156101c957600080fd5b8101908080359060200190929190505050610959565b604051808215151515815260200191505060405180910390f35b34801561020557600080fd5b506102686004803603604081101561021c57600080fd5b81019080803573ffffffffffffffffffffffffffffffffffffffff169060200190929190803573ffffffffffffffffffffffffffffffffffffffff169060200190929190505050610bd4565b604051808215151515815260200191505060405180910390f35b34801561028e57600080fd5b50610297610c92565b604051808273ffffffffffffffffffffffffffffffffffffffff1673ffffffffffffffffffffffffffffffffffffffff16815260200191505060405180910390f35b3480156102e557600080fd5b50610312600480360360208110156102fc57600080fd5b8101908080359060200190929190505050610cb7565b604051808215151515815260200191505060405180910390f35b6103586004803603602081101561034257600080fd5b8101908080359060200190929190505050610f0e565b604051808215151515815260200191505060405180910390f35b34801561037e57600080fd5b506103ab6004803603602081101561039557600080fd5b81019080803590602001909291905050506111e3565b604051808215151515815260200191505060405180910390f35b3480156103d157600080fd5b506103fe600480360360208110156103e857600080fd5b8101908080359060200190929190505050611459565b604051808215151515815260200191505060405180910390f35b34801561042457600080fd5b5061042d611b75565b6040518082815260200191505060405180910390f35b34801561044f57600080fd5b5061047c6004803603602081101561046657600080fd5b8101908080359060200190929190505050611b82565b604051808773ffffffffffffffffffffffffffffffffffffffff1673ffffffffffffffffffffffffffffffffffffffff1681526020018673ffffffffffffffffffffffffffffffffffffffff1673ffffffffffffffffffffffffffffffffffffffff1681526020018060200185815260200184815260200183600181111561050057fe5b60ff168152602001828103825286818151815260200191508051906020019080838360005b83811015610540578082015181840152602081019050610525565b50505050905090810190601f16801561056d5780820380516001836020036101000a031916815260200191505b5097505050505050505060405180910390f35b600061058c3386610bd4565b6105e0577fa2db52a45d71264723caeac03c235d51bb30cff5e1ac71c97a5842ec94fbb6af6040518080602001828103825260248152602001806121736024913960400191505060405180910390a1600080fd5b824210610654577fa2db52a45d71264723caeac03c235d51bb30cff5e1ac71c97a5842ec94fbb6af6040518080602001828103825260168152602001807f4c4f473a20496e76616c696420646561646c696e652e0000000000000000000081525060200191505060405180910390a1600080fd5b600084116106ac577fa2db52a45d71264723caeac03c235d51bb30cff5e1ac71c97a5842ec94fbb6af6040518080602001828103825260258152602001806120e76025913960400191505060405180910390a1600080fd5b600260008673ffffffffffffffffffffffffffffffffffffffff1673ffffffffffffffffffffffffffffffffffffffff16815260200190815260200160002060009054906101000a900460ff161561076b577fa2db52a45d71264723caeac03c235d51bb30cff5e1ac71c97a5842ec94fbb6af6040518080602001828103825260208152602001807f4c4f473a204974656d20697320616c7265616479206f6e2061756374696f6e2e81525060200191505060405180910390a1600080fd5b6000600180548091906001016107819190611d43565b9050846001828154811061079157fe5b90600052602060002090600802016001018190555033600182815481106107b457fe5b906000526020600020906008020160020160006101000a81548173ffffffffffffffffffffffffffffffffffffffff021916908373ffffffffffffffffffffffffffffffffffffffff160217905550856001828154811061081157fe5b906000526020600020906008020160030160006101000a81548173ffffffffffffffffffffffffffffffffffffffff021916908373ffffffffffffffffffffffffffffffffffffffff160217905550836001828154811061086e57fe5b906000526020600020906008020160040181905550826001828154811061089157fe5b906000526020600020906008020160050190805190602001906108b5929190611d75565b5060018082815481106108c457fe5b906000526020600020906008020160070160006101000a81548160ff021916908360018111156108f057fe5b02179055506001600260008873ffffffffffffffffffffffffffffffffffffffff1673ffffffffffffffffffffffffffffffffffffffff16815260200190815260200160002060006101000a81548160ff02191690831515021790555080915050949350505050565b6000813373ffffffffffffffffffffffffffffffffffffffff166001828154811061098057fe5b906000526020600020906008020160020160009054906101000a900473ffffffffffffffffffffffffffffffffffffffff1673ffffffffffffffffffffffffffffffffffffffff16146109d257600080fd5b600183815481106109df57fe5b9060005260206000209060080201600401544210610a4b577fa2db52a45d71264723caeac03c235d51bb30cff5e1ac71c97a5842ec94fbb6af6040518080602001828103825260318152602001806120b66031913960400191505060405180910390a160009150610bce565b610a933060018581548110610a5c57fe5b906000526020600020906008020160030160009054906101000a900473ffffffffffffffffffffffffffffffffffffffff16610bd4565b610aeb577fa2db52a45d71264723caeac03c235d51bb30cff5e1ac71c97a5842ec94fbb6af604051808060200182810382526043815260200180611fe86043913960600191505060405180910390a160009150610bce565b60006001811115610af857fe5b60018481548110610b0557fe5b906000526020600020906008020160070160009054906101000a900460ff166001811115610b2f57fe5b1415610b89577fa2db52a45d71264723caeac03c235d51bb30cff5e1ac71c97a5842ec94fbb6af6040518080602001828103825260238152602001806121c36023913960400191505060405180910390a160009150610bce565b600060018481548110610b9857fe5b906000526020600020906008020160070160006101000a81548160ff02191690836001811115610bc457fe5b0217905550600191505b50919050565b6000808290508373ffffffffffffffffffffffffffffffffffffffff168173ffffffffffffffffffffffffffffffffffffffff1663893d20e86040518163ffffffff1660e01b815260040160206040518083038186803b158015610c3757600080fd5b505afa158015610c4b573d6000803e3d6000fd5b505050506040513d6020811015610c6157600080fd5b810190808051906020019092919050505073ffffffffffffffffffffffffffffffffffffffff161491505092915050565b6000809054906101000a900473ffffffffffffffffffffffffffffffffffffffff1681565b6000813373ffffffffffffffffffffffffffffffffffffffff1660018281548110610cde57fe5b906000526020600020906008020160020160009054906101000a900473ffffffffffffffffffffffffffffffffffffffff1673ffffffffffffffffffffffffffffffffffffffff1614610d3057600080fd5b600180811115610d3c57fe5b60018481548110610d4957fe5b906000526020600020906008020160070160009054906101000a900460ff166001811115610d7357fe5b1415610dcd577fa2db52a45d71264723caeac03c235d51bb30cff5e1ac71c97a5842ec94fbb6af60405180806020018281038252602781526020018061208f6027913960400191505060405180910390a160009150610f08565b60018381548110610dda57fe5b9060005260206000209060080201600401544210610e46577fa2db52a45d71264723caeac03c235d51bb30cff5e1ac71c97a5842ec94fbb6af60405180806020018281038252603181526020018061205e6031913960400191505060405180910390a160009150610f08565b600060018481548110610e5557fe5b9060005260206000209060080201600001805490501115610ec4577fa2db52a45d71264723caeac03c235d51bb30cff5e1ac71c97a5842ec94fbb6af60405180806020018281038252603b81526020018061210c603b913960400191505060405180910390a160009150610f08565b6001808481548110610ed257fe5b906000526020600020906008020160070160006101000a81548160ff02191690836001811115610efe57fe5b0217905550600191505b50919050565b6000600180811115610f1c57fe5b60018381548110610f2957fe5b906000526020600020906008020160070160009054906101000a900460ff166001811115610f5357fe5b1415610fca577fa2db52a45d71264723caeac03c235d51bb30cff5e1ac71c97a5842ec94fbb6af6040518080602001828103825260188152602001807f4c4f473a2041756374696f6e206e6f74206163746976652e000000000000000081525060200191505060405180910390a1600090506111de565b60018281548110610fd757fe5b906000526020600020906008020160010154341015611044577fa2db52a45d71264723caeac03c235d51bb30cff5e1ac71c97a5842ec94fbb6af604051808060200182810382526028815260200180611fc06028913960400191505060405180910390a1600090506111de565b60006001838154811061105357fe5b906000526020600020906008020160000180548091906001016110769190611df5565b9050336001848154811061108657fe5b906000526020600020906008020160000182815481106110a257fe5b906000526020600020906003020160000160006101000a81548173ffffffffffffffffffffffffffffffffffffffff021916908373ffffffffffffffffffffffffffffffffffffffff16021790555034600184815481106110ff57fe5b9060005260206000209060080201600001828154811061111b57fe5b906000526020600020906003020160010181905550426001848154811061113e57fe5b9060005260206000209060080201600001828154811061115a57fe5b906000526020600020906003020160020181905550346001848154811061117d57fe5b906000526020600020906008020160060160003373ffffffffffffffffffffffffffffffffffffffff1673ffffffffffffffffffffffffffffffffffffffff1681526020019081526020016000206000828254019250508190555060019150505b919050565b60008060018111156111f157fe5b600183815481106111fe57fe5b906000526020600020906008020160070160009054906101000a900460ff16600181111561122857fe5b1415611282577fa2db52a45d71264723caeac03c235d51bb30cff5e1ac71c97a5842ec94fbb6af60405180806020018281038252602c815260200180612147602c913960400191505060405180910390a160009050611454565b60006001838154811061129157fe5b906000526020600020906008020160060160003373ffffffffffffffffffffffffffffffffffffffff1673ffffffffffffffffffffffffffffffffffffffff1681526020019081526020016000205490506000600184815481106112f157fe5b906000526020600020906008020160060160003373ffffffffffffffffffffffffffffffffffffffff1673ffffffffffffffffffffffffffffffffffffffff168152602001908152602001600020819055503373ffffffffffffffffffffffffffffffffffffffff166108fc829081150290604051600060405180830381858888f1935050505061144e577fa2db52a45d71264723caeac03c235d51bb30cff5e1ac71c97a5842ec94fbb6af60405180806020018281038252601f8152602001807f4c4f473a20556e61626c6520746f207472616e73666572206574686572732e0081525060200191505060405180910390a180600184815481106113f257fe5b906000526020600020906008020160060160003373ffffffffffffffffffffffffffffffffffffffff1673ffffffffffffffffffffffffffffffffffffffff168152602001908152602001600020819055506000915050611454565b60019150505b919050565b60006001828154811061146857fe5b9060005260206000209060080201600401544210156114d5577fa2db52a45d71264723caeac03c235d51bb30cff5e1ac71c97a5842ec94fbb6af60405180806020018281038252602c815260200180612197602c913960400191505060405180910390a160009050611b70565b6001808111156114e157fe5b600183815481106114ee57fe5b906000526020600020906008020160070160009054906101000a900460ff16600181111561151857fe5b1415611572577fa2db52a45d71264723caeac03c235d51bb30cff5e1ac71c97a5842ec94fbb6af60405180806020018281038252603381526020018061202b6033913960400191505060405180910390a160009050611b70565b600180838154811061158057fe5b906000526020600020906008020160070160006101000a81548160ff021916908360018111156115ac57fe5b02179055506000600183815481106115c057fe5b906000526020600020906008020160030160009054906101000a900473ffffffffffffffffffffffffffffffffffffffff16905060006001848154811061160357fe5b906000526020600020906008020160000180549050141561171c578073ffffffffffffffffffffffffffffffffffffffff166313af40356001858154811061164757fe5b906000526020600020906008020160020160009054906101000a900473ffffffffffffffffffffffffffffffffffffffff166040518263ffffffff1660e01b8152600401808273ffffffffffffffffffffffffffffffffffffffff1673ffffffffffffffffffffffffffffffffffffffff168152602001915050602060405180830381600087803b1580156116db57600080fd5b505af11580156116ef573d6000803e3d6000fd5b505050506040513d602081101561170557600080fd5b810190808051906020019092919050505050611b6a565b60008090506000600190505b6001858154811061173557fe5b9060005260206000209060080201600001805490508110156117de576001858154811061175e57fe5b9060005260206000209060080201600001828154811061177a57fe5b9060005260206000209060030201600101546001868154811061179957fe5b906000526020600020906008020160000182815481106117b557fe5b90600052602060002090600302016001015411156117d1578091505b8080600101915050611728565b50600060026000600187815481106117f257fe5b906000526020600020906008020160030160009054906101000a900473ffffffffffffffffffffffffffffffffffffffff1673ffffffffffffffffffffffffffffffffffffffff1673ffffffffffffffffffffffffffffffffffffffff16815260200190815260200160002060006101000a81548160ff0219169083151502179055508173ffffffffffffffffffffffffffffffffffffffff166313af40356001868154811061189e57fe5b906000526020600020906008020160000183815481106118ba57fe5b906000526020600020906003020160000160009054906101000a900473ffffffffffffffffffffffffffffffffffffffff166040518263ffffffff1660e01b8152600401808273ffffffffffffffffffffffffffffffffffffffff1673ffffffffffffffffffffffffffffffffffffffff168152602001915050602060405180830381600087803b15801561194e57600080fd5b505af1158015611962573d6000803e3d6000fd5b505050506040513d602081101561197857600080fd5b8101908080519060200190929190505050506001848154811061199757fe5b906000526020600020906008020160000181815481106119b357fe5b906000526020600020906003020160010154600185815481106119d257fe5b90600052602060002090600802016006016000600187815481106119f257fe5b90600052602060002090600802016000018481548110611a0e57fe5b906000526020600020906003020160000160009054906101000a900473ffffffffffffffffffffffffffffffffffffffff1673ffffffffffffffffffffffffffffffffffffffff1673ffffffffffffffffffffffffffffffffffffffff1681526020019081526020016000206000828254039250508190555060018481548110611a9457fe5b90600052602060002090600802016000018181548110611ab057fe5b90600052602060002090600302016001015460018581548110611acf57fe5b9060005260206000209060080201600601600060018781548110611aef57fe5b906000526020600020906008020160020160009054906101000a900473ffffffffffffffffffffffffffffffffffffffff1673ffffffffffffffffffffffffffffffffffffffff1673ffffffffffffffffffffffffffffffffffffffff16815260200190815260200160002060008282540192505081905550505b60019150505b919050565b6000600180549050905090565b6000806060600080600060018781548110611b9957fe5b906000526020600020906008020160020160009054906101000a900473ffffffffffffffffffffffffffffffffffffffff1660018881548110611bd857fe5b906000526020600020906008020160030160009054906101000a900473ffffffffffffffffffffffffffffffffffffffff1660018981548110611c1757fe5b906000526020600020906008020160050160018a81548110611c3557fe5b90600052602060002090600802016004015460018b81548110611c5457fe5b90600052602060002090600802016001015460018c81548110611c7357fe5b906000526020600020906008020160070160009054906101000a900460ff16838054600181600116156101000203166002900480601f016020809104026020016040519081016040528092919081815260200182805460018160011615610100020316600290048015611d275780601f10611cfc57610100808354040283529160200191611d27565b820191906000526020600020905b815481529060010190602001808311611d0a57829003601f168201915b5050505050935095509550955095509550955091939550919395565b815481835581811115611d7057600802816008028360005260206000209182019101611d6f9190611e27565b5b505050565b828054600181600116156101000203166002900490600052602060002090601f016020900481019282601f10611db657805160ff1916838001178555611de4565b82800160010185558215611de4579182015b82811115611de3578251825591602001919060010190611dc8565b5b509050611df19190611ed8565b5090565b815481835581811115611e2257600302816003028360005260206000209182019101611e219190611efd565b5b505050565b611ed591905b80821115611ed15760008082016000611e469190611f53565b60018201600090556002820160006101000a81549073ffffffffffffffffffffffffffffffffffffffff02191690556003820160006101000a81549073ffffffffffffffffffffffffffffffffffffffff02191690556004820160009055600582016000611eb49190611f77565b6007820160006101000a81549060ff021916905550600801611e2d565b5090565b90565b611efa91905b80821115611ef6576000816000905550600101611ede565b5090565b90565b611f5091905b80821115611f4c57600080820160006101000a81549073ffffffffffffffffffffffffffffffffffffffff02191690556001820160009055600282016000905550600301611f03565b5090565b90565b5080546000825560030290600052602060002090810190611f749190611efd565b50565b50805460018160011615610100020316600290046000825580601f10611f9d5750611fbc565b601f016020900490600052602060002090810190611fbb9190611ed8565b5b5056fe4c4f473a20416d6f756e74206c657373207468616e2074686520726573657276652070726963652e4c4f473a205472616e73666572206f776e65727368697020746f204269644b61726f4e61206265666f72652061637469766174696e67207468652061756374696f6e2e4c4f473a2043616e6e6f7420656e6420616e20616c726561647920656e6465642f63616e63656c6c65642061756374696f6e2e4c4f473a2043616e6e6f742063616e63656c20616e2061756374696f6e2061667465722074686520646561646c696e652e4c4f473a2043616e6e6f742063616e63656c20616e20696e6163746976652061756374696f6e2e4c4f473a2054686520646561646c696e6520666f722061756374696f6e2068617320616c7265616479207061737365642e4c4f473a20526573657276652070726963652073686f756c642062652061626f766520302e4c4f473a2043616e6e6f742063616e63656c207468652061756374696f6e2c207468657265206172652076616c6964206269647320706c616365644c4f473a2043616e6e6f742077697468647261772066726f6d20616e206163746976652061756374696f6e2e4c4f473a2053656c6c657220646f6573206e6f74206f776e20746869732061737365742e4c4f473a2043616e6e6f7420656e642061756374696f6e206265666f72652074686520646561646c696e652e4c4f473a205468652061756374696f6e20697320616c7265616479206163746976652ea265627a7a72315820e8ce33e2d1b68ebac4f1518b242c2027787cad12f0d81426181ec550de9c42c064736f6c63430005100032",
  "source": "/* \nAuthors: vaibhav.garg:anchit.gupta:preet.thakkar\nDate: 8th October\n\nThe main contract containing all the business logic\nfor the application, also provides the necessary \nmethods for the front-end\n*/\n\npragma solidity 0.5.16;\n\nimport \"./Asset.sol\";\n\ncontract BidKaroNa {\n  \n  // Struct definitions\n  enum AuctionStatus {Active, Inactive}\n\n  struct Bid {\n    address bidder;\n    uint256 amount;\n    uint256 timeStamp;\n  }\n\n  struct Auction {\n    Bid[] bids;\n    uint256 reservePrice;\n    address seller;\n    address assetAddress;\n    uint256 deadline;\n    string title;\n    mapping(address => uint256) refunds;\n    AuctionStatus status;\n  }\n\n  // State variables\n  address public owner;\n  Auction[] auctions;\n  mapping(address => bool) activeAssets;\n\n  // Modifiers\n  modifier onlySeller(uint256 auctionId) {\n    require(auctions[auctionId].seller == msg.sender);\n    _;\n  }\n\n  // Events\n  event LogFailure(string log);\n\n  // Methods\n  constructor() public {\n    owner = msg.sender;\n  }\n\n  function partyOwnsAsset(address _party, address _assetAddress) public view returns (bool) {\n    Asset assetContract = Asset(_assetAddress);\n    return assetContract.getOwner() == _party;\n  }\n\n  function createAuction(\n                        address _assetAddress,\n                        uint256 _reservePrice,\n                        uint256 _deadline,\n                        string memory _title) public returns (uint256) {\n    \n    // Check if the seller owns the asset\n    if (!partyOwnsAsset(msg.sender, _assetAddress)) {\n      emit LogFailure(\"LOG: Seller does not own this asset.\");\n      revert();\n    }\n    \n    // Check if given deadline is in the future\n    if (block.timestamp >= _deadline) {\n      emit LogFailure(\"LOG: Invalid deadline.\");\n      revert();\n    }\n\n    // Check if reserve price is valid\n    if (_reservePrice <= 0) {\n      emit LogFailure(\"LOG: Reserve price should be above 0.\");\n      revert();\n    }\n\n    // Check if asset is not already on auction\n    if (activeAssets[_assetAddress]) {\n      emit LogFailure(\"LOG: Item is already on auction.\");\n      revert();\n    }\n\n    // Creating the auction in Inactive State\n    uint256 auctionId = auctions.length++;\n    auctions[auctionId].reservePrice = _reservePrice;\n    auctions[auctionId].seller = msg.sender;\n    auctions[auctionId].assetAddress = _assetAddress;\n    auctions[auctionId].deadline = _deadline;\n    auctions[auctionId].title = _title;\n    auctions[auctionId].status = AuctionStatus.Inactive;\n    activeAssets[_assetAddress] = true;\n\n    return auctionId;\n  }\n\n  function activateAuction(uint256 auctionId) public onlySeller(auctionId) returns (bool) {\n    \n    if(block.timestamp >= auctions[auctionId].deadline) {\n      emit LogFailure(\"LOG: The deadline for auction has already passed.\"); \n      return false;\n    }\n    \n    if (!partyOwnsAsset(address(this), auctions[auctionId].assetAddress)){\n      emit LogFailure(\"LOG: Transfer ownership to BidKaroNa before activating the auction.\"); \n      return false;\n    }\n\n    if(auctions[auctionId].status == AuctionStatus.Active) {\n      emit LogFailure(\"LOG: The auction is already active.\"); \n      return false;\n    }\n    \n    auctions[auctionId].status = AuctionStatus.Active;\n    return true;\n  }\n\n  function endAuction(uint256 auctionId) public returns (bool) {\n\n    // The deadline should be gone\n    if (block.timestamp < auctions[auctionId].deadline) {\n      emit LogFailure(\"LOG: Cannot end auction before the deadline.\"); \n      return false;\n    }\n\n    // Auction needs to be active, so that it is ended only once\n    if (auctions[auctionId].status == AuctionStatus.Inactive) {\n      emit LogFailure(\"LOG: Cannot end an already ended/cancelled auction.\"); \n      return false;\n    }\n\n    auctions[auctionId].status = AuctionStatus.Inactive;\n    Asset assetContract = Asset(auctions[auctionId].assetAddress);\n\n    // no valid bidds were placed\n    if(auctions[auctionId].bids.length == 0) {\n      // Tranferring ownership of asset back to the seller\n      assetContract.setOwner(auctions[auctionId].seller);\n    }\n    else{\n      // Finding index corresponding to the highest bid\n      uint256 bidIdx = 0;\n      for(uint256 i=1; i<auctions[auctionId].bids.length; i++) {\n        if(auctions[auctionId].bids[i].amount > auctions[auctionId].bids[bidIdx].amount) {\n          bidIdx = i;\n        }\n      }\n\n      // Marking the asset on auction as inactive\n      activeAssets[auctions[auctionId].assetAddress] = false;\n\n      // Transferring the ownership to the highest bidder\n      assetContract.setOwner(auctions[auctionId].bids[bidIdx].bidder);\n\n      // Transferring the highest bid amount to the seller\n      auctions[auctionId].refunds[auctions[auctionId].bids[bidIdx].bidder] -= auctions[auctionId].bids[bidIdx].amount;\n      auctions[auctionId].refunds[auctions[auctionId].seller] += auctions[auctionId].bids[bidIdx].amount;\n    }\n    return true;  \n  }\n\n  function cancelAuction(uint256 auctionId) public onlySeller(auctionId) returns (bool) {\n\n    if (auctions[auctionId].status == AuctionStatus.Inactive) {\n      emit LogFailure(\"LOG: Cannot cancel an inactive auction.\"); \n      return false;\n    }\n\n    if (block.timestamp >= auctions[auctionId].deadline) {\n      emit LogFailure(\"LOG: Cannot cancel an auction after the deadline.\"); \n      return false;\n    }\n\n    if (auctions[auctionId].bids.length > 0) {\n      emit LogFailure(\"LOG: Cannot cancel the auction, there are valid bids placed\");\n      return false;\n    }\n\n    auctions[auctionId].status = AuctionStatus.Inactive;\n    return true;\n\n  }\n\n  function withdrawRefund(uint256 auctionId) public returns (bool) {\n\n    // Cannot withdraw from an active auction\n    if(auctions[auctionId].status == AuctionStatus.Active) {\n      emit LogFailure(\"LOG: Cannot withdraw from an active auction.\");\n      return false;\n    }\n\n    uint256 refund = auctions[auctionId].refunds[msg.sender];\n    auctions[auctionId].refunds[msg.sender] = 0;\n    \n    if (!msg.sender.send(refund)){\n      emit LogFailure(\"LOG: Unable to transfer ethers.\");\n      auctions[auctionId].refunds[msg.sender] = refund;\n      return false;\n    }\n\n    return true;\n  }\n\n  function placeBid(uint256 auctionId) public payable returns (bool) {\n    \n    // inactive auction\n    if (auctions[auctionId].status == AuctionStatus.Inactive) {\n      emit LogFailure(\"LOG: Auction not active.\");\n      return false;\n    }\n\n    // bid should be greater than reserve price\n    if (msg.value < auctions[auctionId].reservePrice) {\n      emit LogFailure(\"LOG: Amount less than the reserve price.\");\n      return false;\n    }\n\n    uint256 bidId = auctions[auctionId].bids.length++;\n    auctions[auctionId].bids[bidId].bidder = msg.sender;\n    auctions[auctionId].bids[bidId].amount = msg.value;\n    auctions[auctionId].bids[bidId].timeStamp = block.timestamp;\n\n    auctions[auctionId].refunds[msg.sender] += msg.value;\n\n    return true;\n  }\n\n  function getAuctionsLength() public returns(uint256) {\n    return auctions.length;\n  }\n\n  function getAuctionDetails(uint256 auctionId) public returns(\n    address, address, string memory, uint256, uint256, AuctionStatus\n  ) {\n\n    return (\n      auctions[auctionId].seller,\n      auctions[auctionId].assetAddress,\n      auctions[auctionId].title,\n      auctions[auctionId].deadline,\n      auctions[auctionId].reservePrice,\n      auctions[auctionId].status\n    );\n  }\n}\n",
  "sourcePath": "/home/vaibhav/Acads/PoIS/Project/BidKaroNa/contracts/BidKaroNa.sol",
  "compiler": {
    "name": "solc",
    "version": "0.5.16+commit.9c3226ce.Emscripten.clang"
  },
  "schemaVersion": "3.2.5",
  "updatedAt": "2020-10-16T14:10:38.502Z",
  "networkType": "ethereum",
  "devdoc": {
    "methods": {}
  },
  "userdoc": {
    "methods": {}
  }
}